:020000020000FC
:100000000C944B000C9446000C9446000C94460053
:100010000C9446000C9446000C9446000C94460048
:100020000C9446000C9446000C9446000C94460038
:100030000C9446000C9446000C9446000C94460028
:100040000C9446000C9446000C9446000C94460018
:100050000C9446000C9446000C9446000C94460008
:100060000C9446000C9446000C9446000C944600F8
:100070000C9446000C9446000C9446000C944600E8
:100080000C9446000C9446000C9446000FEF04BB01
:1000900005EA05BBFFCF0FEF0DBF00E10EBF20E06B
:1000A00011E00FEF04BB00E00093640030E000E0DB
:1000B00002B940E050E001E0102F0091630002130C
:1000C0000E94650015BB0C945D0001131395011788
:1000D00009F0089531E041B1407119F00C947400B9
:0E00E00008950091630050E00091630051E02C
:00000001FF
